:020000020000FC
:0200000045C0F9
:10008C000FEF0DBF00E10EBF5527662744270FEF7A
:10009C0007BB00E008BB00E001BB0FEF02BB00E0B8
:1000AC0008BB08E002B903E00093980000E4009359
:1000BC00990002E000939B000EE000939D0008E085
:1000CC0000939A007894002700B30F3759F00F3B38
:1000DC0059F00F3D59F00F3E59F00D3F59F00E3FBE
:1000EC0059F00CC014D00AC018D008C01CD006C0DF
:1000FC0020D004C024D002C028D000C0403029F049
:10010C005F935DEE28D05F9126D058BBDCCF9894DE
:10011C000F9350EB41E00F91089598940F9350E892
:10012C0041E00F91089598940F9350EA41E00F919C
:10013C00089598940F9350E941E00F910895989485
:10014C000F9358EC41E00F91089598940F9358EF4A
:10015C0041E00F91089598940F9300274427009144
:0E016C009B0005FFFCCF50939C000F9108955F
:00000001FF
