:020000020000FC
:0200000045C0F9
:1000040067D0189570D0189579D0189581D0189527
:0400240081D01895DA
:04003C0077D01895CC
:10008C000FEF0DBF00E10EBF0FEF07BB00E008BB89
:10009C0000E001BB0FEF02BB00E008BB0FEF0093C9
:1000AC006A000FE009BFBC9A09E603BFBF9A09E6D4
:1000BC0005BD02E807BF40E050E0789400E098945A
:1000CC00451709F02FD0FACFF89401E008BF00E0F3
:1000DC0009BF4F3009F043950FE009BF0895F8941C
:1000EC0002E008BF00E009BF403009F04A950FE07C
:1000FC0009BF0895F89404E008BF00E009BF442745
:10010C004FE00FE009BF0895F89408E008BF00E045
:10011C0009BF442740E00FE009BF0895F894089503
:10012C00F8940895F8940F930FB70F934F935F9132
:10013C004F9308B708BF00E009BF989411272227F6
:10014C00142F21E1129F01BE03BC00E0403009F0E6
:10015C0000E6040F08BB0FE009BF4F910F910FBFD2
:06016C000F917894089544
:00000001FF
